:1000000007C1000035C1000033C1000031C100004C
:100010002FC100002DC100002BC1000029C100002C
:1000200027C1000025C1000023C1000021C100003C
:100030001FC100001DC100001BC1000019C100004C
:1000400017C1000015C1000013C1000011C100005C
:100050000FC100000DC100000BC10000B8C40000BA
:1000600007C100007EC4000053C4000001C10000AD
:10007000FFC00000FDC00000FBC00000F9C0000090
:10008000F7C00000F5C00000F3C00000F1C00000A0
:10009000EFC00000EDC00000EBC00000E2C40000B3
:1000A000E7C00000E5C00000E3C00000E1C00000C0
:1000B000DFC00000DDC00000DBC00000D9C00000D0
:1000C000D7C00000D5C00000D3C00000D1C00000E0
:1000D000CFC00000CDC00000CBC00000C9C00000F0
:1000E000C7C000002D0330031F032303270367034A
:1000F000340338033E03420346034C0350035403C6
:1001000067035A035E03620300000A0B02090C0D29
:100110000E080703040100000000000000000000BA
:1001200000000000000000000000000000000000CF
:10013000000000001211100000000000000000008C
:1001400000000000000000000000000000000000AF
:100150002200250028002B002E003100340002016F
:100160000000050108010B01000021002400270008
:100170002A002D00300033000101000004010701B6
:100180000A0105050505070508080808020202021C
:100190000A0A080804040404010101010101010123
:1001A0000303030303030303040707070C0C0C0CEE
:1001B0000C0C0C0C020202020606060606060606D7
:1001C0000B0B0B0B0B0B0B0B010210202008081064
:1001D00020401020408002010201080402010102B7
:1001E0000408102040808040201008040201800490
:1001F00002018040201008040201080402010102EB
:10020000040810204080010204081020408062068B
:1002100011241FBECFEFD1E2DEBFCDBF00E00CBF87
:1002200023E0A8E2B2E001C01D92A23AB207E1F7D2
:1002300012E0A0E0B2E0E0E4F5E100E00BBF02C0B4
:1002400007900D92A832B107D9F711E0C8E0D1E0CC
:1002500000E006C021970109802FFE010E94920A4A
:10026000C730D10780E00807A9F778D50C949E0A1B
:10027000C7CE90E0FC01E853FE4F2491FC01EE57FD
:10028000FE4F8491882399F090E0880F991FFC011C
:10029000E859FE4FA591B491FC01E25BFE4F8591B8
:1002A00094918FB7F894EC91E22BEC938FBF089563
:1002B0002091E6029091E502213208F04AC0809137
:1002C000C2028111FCCF32E03093C20231E03093A0
:1002D000C1023FEF3093C0021092BF022093BE02D2
:1002E000A5ECB2E04EE952E0FA013E2F341B321782
:1002F00018F43D913193F9CF10929D0220919D0207
:10030000990F922B90939D0290919C02913061F4F1
:1003100010929C0290919D029093BB009091BC0022
:1003200093FDF8CF95EC01C095EE9093BC009091B1
:10033000C2029230E1F39091C0029F3F79F0809128
:10034000C002803241F08091C002803331F084E0FD
:1003500005C081E003C082E001C083E01092C402C6
:100360001092E6021092C3020895CF92DF92EF92AC
:10037000FF920F931F93CF93DF936C017A018B0150
:10038000C0E0D0E0CE15DF0589F0D8016D918D0178
:10039000D601ED91FC910190F081E02DC6011995F7
:1003A000892B11F47E0102C02196ECCFC701DF91A9
:1003B000CF911F910F91FF90EF90DF90CF90089514
:1003C000CF93DF9300D01F92CDB7DEB799838A8396
:1003D0007B836C8344E050E0BE016F5F7F4F87EE0C
:1003E00092E0C3DF0F900F900F900F90DF91CF91AD
:1003F0000895FC01538D448D252F30E0842F90E02B
:10040000821B930B541710F0CF960895019708950F
:10041000FC01918D828D981761F0828DDF01A80F0C
:10042000B11D5D968C91928D9F5F9F73928F90E02E
:1004300008958FEF9FEF0895FC01918D828D98179D
:1004400031F0828DE80FF11D858D90E008958FEFDA
:100450009FEF0895FC01918D228D892F90E0805CA3
:100460009F4F821B91098F739927089587EE92E021
:10047000F1DF21E0892B09F420E0822F0895FC01AF
:10048000848DDF01A80FB11DA35ABF4F2C91848D1D
:1004900090E001968F739927848FA689B7892C9352
:1004A000A089B1898C9180648C93938D848D9813ED
:1004B00006C00288F389E02D80818F7D80830895B6
:1004C000EF92FF920F931F93CF93DF93EC0181E0A4
:1004D000888F9B8D8C8D981305C0E889F989808160
:1004E00085FD23C0F62E0B8D10E00F5F1F4F0F739D
:1004F0001127E02E8C8DE8120BC00FB607FCFACF47
:10050000E889F989808185FFF5CFCE01B8DFF2CF88
:100510008B8DFE01E80FF11DE35AFF4FF0820B8F28
:10052000EA89FB898081806207C0EE89FF89608348
:10053000E889F98980818064808381E090E0DF919F
:10054000CF911F910F91FF90EF900895CF93DF937C
:10055000EC01888D8823C1F0EA89FB89808185FDC3
:1005600005C0A889B9898C9186FD0EC00FB607FC1D
:10057000F5CF808185FFF2CFA889B9898C9185FF5D
:10058000EDCFCE017CDFE8CFDF91CF91089580E001
:1005900090E0892B19F06ADF811125C080E090E09E
:1005A000892B41F080E090E0892B21F00E9400002F
:1005B00081111CC080E090E0892B41F080E090E048
:1005C000892B21F00E940000811113C080E090E08F
:1005D000892BA1F080E090E0892B81F00E9400003F
:1005E00081110AC008950E940000D8CF0E94000027
:1005F000E1CF0E940000EACF0C9400000895362F4E
:1006000090E0FC01E85FFE4F4491FC01E853FE4F8F
:100610002491FC01EE57FE4F9491992309F46AC08E
:10062000442309F454C050E0FA013197E231F10556
:1006300008F04DC08827EE58FF4F8F4F73C7809149
:1006400080008F7707C0809180008F7D03C08091EC
:100650008000877F809380003AC084B58F7702C086
:1006600084B58F7D84BD33C08091B0008F7703C087
:100670008091B0008F7D8093B00029C08091900060
:100680008F7707C0809190008F7D03C0809190008C
:10069000877F809390001BC08091A0008F7707C058
:1006A0008091A0008F7D03C08091A000877F809300
:1006B000A0000DC0809120018F7707C0809120019C
:1006C0008F7D03C080912001877F80932001E92FD7
:1006D000F0E0EE0FFF1FE25BFE4FA591B4918FB7E4
:1006E000F894EC91311103C020952E2301C02E2BDC
:1006F0002C938FBF08953FB7F89480917402909126
:100700007502A0917602B091770226B5A89B05C02C
:100710002F3F19F00196A11DB11D3FBFBA2FA92F80
:10072000982F8827820F911DA11DB11DBC01CD01FD
:1007300042E0660F771F881F991F4A95D1F70895E9
:100740002FB7F894609170027091710280917202DB
:10075000909173022FBF089585ED8093BC00809126
:10076000BC0084FDFCCF1092C202089540914A0261
:10077000262F30E0240F311D21323105DCF4209189
:10078000C2022430C9F4FC0180E090E0861758F4DE
:1007900030914A022191DC01A85DBD4FA30FB11D2C
:1007A0002C930196F3CF80914A02680F60934A021E
:1007B00080E0089581E0089582E008951092C202D9
:1007C00081E08093C10210929C0261E084E117DF16
:1007D00061E085E114DFE9EBF0E080818E7F8083CA
:1007E00080818D7F808388E48093B80085E4809346
:1007F000BC0008950895E0917A0280917902E8178B
:1008000030F4F0E0E558FD4F808190E008958FEFDF
:100810009FEF089590917A0280917902981750F491
:10082000E92FF0E0E558FD4F208130E09F5F909385
:100830007A0202C02FEF3FEFC9010895809179023B
:1008400090E020917A02821B91090895CF92DF9265
:10085000EF92FF920F931F93CF93DF937C01262F8C
:10086000972F8A018091C302882391F0C62FD72F3A
:100870006E01C40ED51ECC15DD0569F06991D70156
:10088000ED91FC910190F081E02DC7011995F3CF16
:10089000642F822F6BDFC801DF91CF911F910F91E1
:1008A000FF90EF90DF90CF900895CF93DF931F924A
:1008B000CDB7DEB769832091C3022223D1F0209106
:1008C000E602203240F021E030E0FC013383228355
:1008D00080E090E014C08091C402E82FF0E0EB5378
:1008E000FD4F998190838F5F8093C4028093E602CD
:1008F00004C061E0CE01019639DF81E090E00F9005
:10090000DF91CF910895089580E090E0089512D688
:100910001F920F920FB60F9211240BB60F922F93C6
:100920003F934F935F936F937F938F939F93AF9377
:10093000BF93EF93FF9387EE92E0A1DDFF91EF91DC
:10094000BF91AF919F918F917F916F915F914F91E7
:100950003F912F910F900BBE0F900FBE0F901F90E5
:1009600018951F920F920FB60F9211240BB60F928B
:100970002F938F939F93EF93FF93E091F702F09162
:10098000F8028081E091FD02F091FE0282FD12C02A
:100990009081809100038F5F8F73209101038217F4
:1009A00051F0E0910003F0E0E951FD4F958F809305
:1009B000000301C08081FF91EF919F918F912F9152
:1009C0000F900BBE0F900FBE0F901F9018951F92A7
:1009D0000F920FB60F9211242F933F938F939F93F3
:1009E000AF93BF938091700290917102A0917202B7
:1009F000B091730230916F0223E0230F2D3720F462
:100A00000196A11DB11D05C026E8230F0296A11D68
:100A1000B11D20936F028093700290937102A09396
:100A20007202B09373028091740290917502A0914A
:100A30007602B09177020196A11DB11D80937402D8
:100A400090937502A0937602B0937702BF91AF9115
:100A50009F918F913F912F910F900FBE0F901F90FC
:100A600018951F920F920FB60F9211240BB60F928A
:100A70002F933F934F935F936F937F938F939F93A6
:100A8000AF93BF93EF93FF938091B900887F803637
:100A900009F49CC068F5883209F45BC090F4803199
:100AA00009F454C038F4882309F4F6C0883009F4F6
:100AB0004DC0F5C0883109F44CC0803209F45DC0E6
:100AC000EEC0803409F468C048F4803309F455C09E
:100AD000883309F0E4C08093C002D8C0803509F49F
:100AE0004FC0883509F45DC0883409F0D8C0D6C03D
:100AF000883909F4C7C0A8F4883709F467C038F406
:100B0000883609F463C0803709F460C0C8C08838EB
:100B100009F4B8C0803909F45FC0803809F0BFC05B
:100B20005BC0803B09F486C038F4803A09F466C0A3
:100B3000883A09F47FC0B3C0803C09F4A7C0883C60
:100B400009F4A4C0883B09F48AC0A9C080919D0221
:100B500010C09091BF028091BE02981770F5E0918D
:100B6000BF0281E08E0F8093BF02F0E0E256FD4F9E
:100B700080818093BB0085EC86C08093C0028EC0CC
:100B8000E091BF0281E08E0F8093BF028091BB0095
:100B9000F0E0E256FD4F80839091BF028091BE024B
:100BA0006EC0E091BF0281E08E0F8093BF02809102
:100BB000BB00F0E0E256FD4F80838091C1028111BD
:100BC0006DC081E080939C0284EA61C083E08093E1
:100BD000C20210926E02CFCF80916E02803208F076
:100BE00051C0E0916E0281E08E0F80936E02809181
:100BF000BB00F0E0E25BFD4F8083BDCF85EC8093CE
:100C0000BC001092C20280916E02803230F4E091FA
:100C10006E02F0E0E25BFD4F108260916E0270E0C8
:100C2000E0914C02F0914D028EE492E01995109201
:100C30006E0235C084E08093C20210924B02109283
:100C40004A02E0914802F0914902199580914A02C6
:100C5000811105C081E080934A0210922802E09140
:100C60004B0281E08E0F80934B02F0E0E85DFD4F78
:100C700080818093BB0090914B0280914A0298172B
:100C800008F479CF85E88093BC0009C085EC809397
:100C9000BC001092C20203C01092C0025DDDFF9141
:100CA000EF91BF91AF919F918F917F916F915F91E4
:100CB0004F913F912F910F900BBE0F900FBE0F9051
:100CC0001F901895E7EEF2E01382128288EE93E00F
:100CD000A0E0B0E084839583A683B78328E032E068
:100CE0003183208325EC30E03587248724EC30E005
:100CF0003787268720EC30E0318B208B21EC30E0E9
:100D0000338B228B22EC30E0358B248B26EC30E0C9
:100D1000378B268B118E128E138E148EE4E8F3E03F
:100D20001382128284839583A683B7838AE192E03B
:100D300091838083E0E9F3E087E580831182E2E933
:100D4000F3E01282138214821582178216821286B1
:100D5000138614861586178616860895CF93DF931B
:100D6000CDB7DEB72F970FB6F894DEBF0FBECDBF5D
:100D7000789484B5826084BD84B5816084BD85B576
:100D8000826085BD85B5816085BD80916E00816082
:100D900080936E0010928100809181008260809328
:100DA000810080918100816080938100809180002A
:100DB0008160809380008091B10084608093B10055
:100DC0008091B00081608093B0008091910082603A
:100DD0008093910080919100816080939100809137
:100DE00090008160809390008091A1008260809348
:100DF000A1008091A10081608093A1008091A0005A
:100E000081608093A0008091210182608093210104
:100E10008091210181608093210180912001816076
:100E20008093200180917A00846080937A00809181
:100E30007A00826080937A0080917A00816080934A
:100E40007A0080917A00806880937A001092C100C5
:100E500089E00FDA61E089E0D2DB88E00ADA61E05C
:100E600088E0CDDBE091F702F091F80282E0808328
:100E7000E091F302F091F4021082E091F502F0911A
:100E8000F60280E180831092FF02E091FB02F09174
:100E9000FC0286E08083E091F902F091FA02808101
:100EA00080618083E091F902F091FA02808188608C
:100EB0008083E091F902F091FA028081806880835A
:100EC000E091F902F091FA0280818F7D80831FB753
:100ED000F89480917802811120C0E7EBF1E08491D1
:100EE000EDEFF1E09491E82FF0E0EE0FFF1FE859ED
:100EF000FE4FA591B491EC91E92319F461E085E3EB
:100F00007EDB85E3B6D98CB580618CBD8CB5806401
:100F10008CBD84E3AED983E3ACD9809178028F5F36
:100F2000809378021FBF9E01295F3F4F38872F8330
:100F30003324339487EE92E08DDA181619060CF0FC
:100F4000C1C287EE92E064DA843009F427C1C8F4A4
:100F5000823061F1833009F0B5C210927A021092AA
:100F600079021092C4021092E60228DC3092C30289
:100F700088E68093E50260E084E893E096DC98D907
:100F8000DAC1853061F0803209F09CC2D9DB4B01B7
:100F90005C013FEF3987412C512C320132C072E99C
:100FA000E72E73E0F72E00E010E070C287EE92E0CB
:100FB00051DA18161906D4F787EE92E029DA8093F1
:100FC0009B02E2E9F3E0A0E0B2E020E030E0992704
:100FD000281739070CF076C2128213821482158208
:100FE000178216824D915D91518340832F5F3F4F51
:100FF0003896EECFC301B201E3D94985413209F4F5
:1010000061C287EE92E026DA1816190624F487EEFC
:1010100092E0FED9898762E9E62E63E0F62E870129
:10102000C12CD12C80919B0290E0C816D9060CF0FF
:1010300070C090919003809191039CBD8DBD60E044
:10104000D8018C91DCDA1EBC00000DB407FEFDCF88
:101050008EB5482F50E01EBC00000DB407FEFDCF3A
:101060002EB461E0F80180814A875B87C8DA822D5F
:1010700090E09C0144E0369527954A95E1F74A8532
:101080005B85CA0154E0880F991F5A95E1F7822BBE
:10109000932B411451046104710481F1D801169617
:1010A0002D913C911797A901481B590B493E53407C
:1010B00074F0F80142815381648175814F5F5F4F05
:1010C0006F4F7F4F428353836483758317C0FC0146
:1010D000E21BF30B9F01293E334084F0D8011296A6
:1010E0004D915D916D917C91159741505109610928
:1010F0007109F8014283538364837583D80117967D
:101100009C938E931697BFEFCB1ADB0A085F1F4F95
:1011100089CF16DB2B013C01481859086A087B0867
:10112000C301B20123E630E040E050E0D9D1672BA3
:10113000682B692B09F061CF00E010E080919B02E1
:1011400090E0081719070CF055CFF7014281538141
:1011500064817581DB01CA012CE0880F991FAA1FE9
:10116000BB1F2A95D1F78C879D87AE87BF87868165
:101170009781092E000CAA0BBB0B2C853D854E8553
:101180005F85280F391F4A1F5B1FCA01B90118D993
:101190000F5F1F4F38E0E30EF11CD0CFD1DA6B01A7
:1011A0007C0187EE92E056D90697D9F0A4DA4B017C
:1011B0005C01A1DADC01CB0188199909AA09BB09F4
:1011C000883E9340A105B105A0F3BADADC01CB015A
:1011D0008C199D09AE09BF09893E9340A105B1054F
:1011E00000F38E010F5F1F4FABDA6093EF02709335
:1011F000F0028093F1029093F202E091E702F09105
:10120000E8020284F385E02D87EE92E0199597FDC0
:1012100074C0D8018D938D01EF81F885AE17BF079B
:1012200019F7BE80CD80DC80EB80FA80098110E068
:101230000053184F10927A02109279021092C40251
:101240001092E602BBDA3092C30288E68093E50290
:1012500060E084E893E029DB1AE08B2D612F34D124
:10126000282F880F280F220F622F6B0D84E893E040
:101270001CDB8C2D612F28D1982F880F980F990F88
:10128000692F6C0D84E893E010DB8D2D612F1CD14C
:10129000282F880F280F220F622F6D0D84E893E00E
:1012A00004DB60E084E893E000DB8E2D612F0CD13D
:1012B000982F880F980F990F692F6E0D84E893E08F
:1012C000F4DA8F2D612F00D1682F660F860F682FFB
:1012D000660F6F0D84E893E0E8DA005D802F612FE0
:1012E000F3D0682F660F860F880F682F600F84E891
:1012F00093E0DBDA0E945801E5C022DAC090EF02E9
:10130000D090F002E090F102F090F202DC01CB010B
:101310008C199D09AE09BF09C090EB02D090EC0278
:10132000E090ED02F090EE028C159D05AE05BF0534
:1013300008F463CF76CF8091C2028111FCCF309246
:10134000C2023092C1028FEF8093C0021092BF029E
:1013500086E08093BE0230929D0280919D02806D56
:1013600080939D0280919C02813061F410929C02D6
:1013700080919D028093BB008091BC0083FDF8CFDB
:1013800085EC01C085EE8093BC008091C202813063
:10139000E1F38091BF02873018F48091BF0201C051
:1013A00087E0AEE9B2E0EBE7F2E09E2F2BE732E018
:1013B000921B981718F49D919193F7CF10927A028F
:1013C0008093790284E893E025DA8F77982F9295BD
:1013D0009F701AEF082F919F000D112484E893E06D
:1013E00019DA9C01332744E0359527954A95E1F7B2
:1013F000F82E129FF00C112484E893E00BDA9C0184
:10140000332754E0359527955A95E1F7E82E129F3A
:10141000E00C112484E893E0FDD984E893E0FAD944
:101420009C01332764E0359527956A95E1F7D82E1E
:10143000129FD00C112484E893E0ECD99C0133274F
:1014400074E0359527957A95E1F7C82E129FC00C68
:10145000112484E893E0DED99C013327E4E035953C
:101460002795EA95E1F7129F800D11248983CA829E
:10147000DB82EC82FD820E8346E050E0BE016F5FAE
:101480007F4F87EE92E00E94B5011CC080919B02C5
:1014900090E008171907B4F4F70182819381A481C1
:1014A000B581BC01CD012CE0660F771F881F991F05
:1014B0002A95D1F70E94E0010F5F1F4FF8E0EF0E71
:1014C000F11CE4CF64D836CD991B79E004C0991F94
:1014D000961708F0961B881F7A95C9F7809508958E
:1014E000A1E21A2EAA1BBB1BFD010DC0AA1FBB1F28
:1014F000EE1FFF1FA217B307E407F50720F0A21B9A
:10150000B30BE40BF50B661F771F881F991F1A9406
:1015100069F760957095809590959B01AC01BD0130
:10152000CF010895EE0FFF1F881F8BBF0790F69124
:10153000E02D199481E090E0F89400C0F894FFCF7A
:1015400009000800000000006002B501F901A602D0
:101550002A0208021C02000000005504260484042C
:08156000FA031E040A04FB0358
:00000001FF
