:100000000C9462000C948A000C948A000C948A0070
:100010000C948A000C948A000C948A000C948A0038
:100020000C948A000C948A000C948A000C948A0028
:100030000C948A000C948A000C948A000C948A0018
:100040000C9470040C948A000C943E040C941804D4
:100050000C948A000C948A000C948A000C948A00F8
:100060000C948A000C948A000000000025002800EF
:100070002B000000000023002600290000000008DB
:10008000000201000003040700000000000000005F
:1000900000000000240027002A00010204081020AC
:1000A000408001020408102001020408102004040A
:1000B0000404040404040202020202020303030310
:1000C0000303BA0411241FBECFEFD8E0DEBFCDBFBB
:1000D00011E0A0E0B1E0E2E0F0E102C005900D9295
:1000E000AA3CB107D9F722E0AAECB1E001C01D9209
:1000F000A039B207E1F710E0C2E6D0E004C02197D2
:10010000FE010E94F407C136D107C9F70E94F80426
:100110000C94FF070C940000E091E701F091E801D6
:100120000190F081E02D682F87EE91E00994CF9245
:10013000DF92EF92FF920F931F93CF93DF936C01A7
:100140007A018B01C0E0D0E0CE15DF0589F0D8013F
:100150006D918D01D601ED91FC910190F081E02D22
:10016000C6010995892B11F47E0102C02196ECCFBE
:10017000C701DF91CF911F910F91FF90EF90DF901A
:10018000CF900895089580E090E00895FC01538D8C
:10019000448D252F30E0842F90E0821B930B541761
:1001A00010F0CF96089501970895FC01918D828DEE
:1001B000981761F0828DDF01A80FB11D5D968C91BB
:1001C000928D9F5F9F73928F90E008958FEF9FEFC6
:1001D0000895FC01918D828D981731F0828DE80F82
:1001E000F11D858D90E008958FEF9FEF0895FC013C
:1001F000918D228D892F90E0805C9F4F821B910909
:100200008F739927089587EE91E00E94F70021E00F
:10021000892B09F420E0822F0895FC01848DDF01F1
:10022000A80FB11DA35ABF4F2C91848D90E0019669
:100230008F739927848FA689B7892C93A089B18958
:100240008C9180648C93938D848D981306C0028862
:10025000F389E02D80818F7D80830895EF92FF9256
:100260000F931F93CF93DF93EC0181E0888F9B8DD9
:100270008C8D981305C0E889F989808185FD24C09B
:10028000F62E0B8D10E00F5F1F4F0F731127E02E1E
:100290008C8DE8120CC00FB607FCFACFE889F989FB
:1002A000808185FFF5CFCE010E940D01F1CF8B8DAE
:1002B000FE01E80FF11DE35AFF4FF0820B8FEA8930
:1002C000FB898081806207C0EE89FF896083E889AD
:1002D000F98980818064808381E090E0DF91CF9113
:1002E0001F910F91FF90EF900895CF93DF93EC0152
:1002F000888D8823C9F0EA89FB89808185FD05C046
:10030000A889B9898C9186FD0FC00FB607FCF5CF7F
:10031000808185FFF2CFA889B9898C9185FFEDCFC7
:10032000CE010E940D01E7CFDF91CF91089580E0CB
:1003300090E0892B29F00E94030181110C940000A8
:100340000895833081F028F4813099F08230A1F053
:1003500008958730A9F08830B9F08430D1F48091C5
:1003600080008F7D03C0809180008F778093800014
:10037000089584B58F7702C084B58F7D84BD0895BC
:100380008091B0008F7703C08091B0008F7D809303
:10039000B0000895CF93DF93282F30E0F901E4589F
:1003A000FF4F8491F901E656FF4FD491F901E255D0
:1003B000FF4FC491CC2391F081110E94A101EC2F39
:1003C000F0E0EE0FFF1FEE58FF4FA591B491EC91B6
:1003D000ED2381E090E021F480E002C080E090E035
:1003E000DF91CF9108951F93CF93DF93282F30E0B3
:1003F000F901E458FF4F8491F901E656FF4FD4917B
:10040000F901E255FF4FC491CC23C9F0162F811199
:100410000E94A101EC2FF0E0EE0FFF1FE859FF4F03
:10042000A591B4918FB7F894111105C09C91ED2F4F
:10043000E095E92302C0EC91ED2BEC938FBFDF91A7
:10044000CF911F910895CF93DF9390E0FC01E65682
:10045000FF4F2491FC01E255FF4F8491882361F105
:1004600090E0880F991FFC01E057FF4FC591D49190
:10047000FC01E859FF4FA591B491611109C09FB7E4
:10048000F8948881209582238883EC912E230BC0D9
:10049000623061F49FB7F8943881822F809583236E
:1004A0008883EC912E2B2C939FBF06C08FB7F894B6
:1004B000E8812E2B28838FBFDF91CF9108953FB71E
:1004C000F8948091CB019091CC01A091CD01B09195
:1004D000CE0126B5A89B05C02F3F19F00196A11D9E
:1004E000B11D3FBFBA2FA92F982F8827820F911DCA
:1004F000A11DB11DBC01CD0142E0660F771F881F11
:10050000991F4A95D1F708958F929F92AF92BF920B
:10051000CF92DF92EF92FF926B017C010E945F020B
:100520004B015C01C114D104E104F104F1F00E941B
:100530005F02DC01CB0188199909AA09BB09883E31
:100540009340A105B10570F321E0C21AD108E1087A
:10055000F10888EE880E83E0981EA11CB11CC1141E
:10056000D104E104F10419F7DDCFFF90EF90DF90A3
:10057000CF90BF90AF909F908F90089508958EBDBB
:1005800000000DB407FEFDCF8EB508958CBD9DBD56
:100590000895EF92FF920F931F93CF93DF931F92D3
:1005A000CDB7DEB77C018B01FC018181928149834B
:1005B0000E94C60260E0F70180810E94F301498138
:1005C000842F0E94BF02F80180810E94BF02F801BF
:1005D00081810E94BF02F80182810E94BF0261E016
:1005E000F70180810F90DF91CF911F910F91FF90C4
:1005F000EF900C94F301EF92FF920F931F93CF9320
:10060000DF931F92CDB7DEB77C018B01FC018181A6
:10061000928149830E94C60260E0F70180810E94B6
:10062000F3014981842F0E94BF0280E00E94BF0233
:10063000F801808380E00E94BF02F801818380E09E
:100640000E94BF02F801828361E0F70180810F9070
:10065000DF91CF911F910F91FF90EF900C94F301D8
:10066000FF920F931F93CF93DF9300D01F92CDB7CC
:10067000DEB78C01F62E48E4BE016F5F7F4F0E940B
:10068000FB0289818F716F2D682B698348E0BE0161
:100690006F5F7F4FC8010E94C90260E0F80180814E
:1006A0000E94F301F80183810E94CA010197D1F3EE
:1006B00048E4BE016F5F7F4FC8010E94FB02898141
:1006C0008F71898348E0BE016F5F7F4FC8010E9430
:1006D000C9020F900F900F90DF91CF911F910F9152
:1006E000FF900895009769F0FC0101900020E9F760
:1006F0003197AF01481B590BBC0187EE91E00C9478
:10070000970080E090E008958F929F92AF92BF9201
:100710000F931F93CF93DF93CDB7DEB7A1970FB69B
:10072000F894DEBF0FBECDBF19A2423008F44AE0F4
:100730008E010F5D1F4F842E912CA12CB12CA50191
:1007400094010E94D207E62FB901CA010150110994
:10075000EA3014F4E05D01C0E95CD801EC93232B8E
:10076000242B252B61F7C8010E947203A1960FB6B6
:10077000F894DEBF0FBECDBFDF91CF911F910F91D7
:10078000BF90AF909F908F900895CF93DF930E947A
:100790007203EC0182E191E00E9472038C0F9D1FB5
:1007A000DF91CF910895CF92DF92EF92FF92CF9396
:1007B000DF936C01990FEE08FF08F7FE12C08DE27F
:1007C0000E948C00EC0166277727CB016C197D090C
:1007D0008E099F094AE00E9484037C01EC0EFD1EF5
:1007E00006C04AE0C701B6010E9484037C0182E191
:1007F00091E00E9472038E0D9F1DDF91CF91FF90BB
:10080000EF90DF90CF9008950E94FA07CF93DF9387
:10081000EC01862F68834B839CE599831A8261E003
:100820000E94230261E08881DF91CF910C94F30153
:100830001F920F920FB60F9211242F933F934F9355
:100840005F936F937F938F939F93AF93BF93EF9338
:10085000FF9387EE91E00E940D01FF91EF91BF9110
:10086000AF919F918F917F916F915F914F913F9148
:100870002F910F900FBE0F901F9018951F920F92FF
:100880000FB60F9211242F938F939F93EF93FF93A3
:10089000E091F701F091F8018081E091FD01F09184
:1008A000FE0182FD12C09081809100028F5F8F73E4
:1008B00020910102821751F0E0910002F0E0E9512D
:1008C000FE4F958F8093000201C08081FF91EF91D0
:1008D0009F918F912F910F900FBE0F901F901895A1
:1008E0001F920F920FB60F9211242F933F938F9365
:1008F0009F93AF93BF938091D0019091D101A0912C
:10090000D201B091D3013091CA0123E0230F2D37DA
:1009100020F40196A11DB11D05C026E8230F029603
:10092000A11DB11D2093CA018093D0019093D101E4
:10093000A093D201B093D3018091CB019091CC01CF
:10094000A091CD01B091CE010196A11DB11D809362
:10095000CB019093CC01A093CD01B093CE01BF9178
:10096000AF919F918F913F912F910F900FBE0F905C
:100970001F901895E7EEF1E01382128288EE93E063
:10098000A0E0B0E084839583A683B78384E091E000
:100990009183808385EC90E09587848784EC90E058
:1009A0009787868780EC90E0918B808B81EC90E03C
:1009B000938B828B82EC90E0958B848B86EC90E01D
:1009C000978B868B118E128E138E148E4CE06AE0FC
:1009D00084E892E00E9406044CE067E088E892E038
:1009E0000E9406044CE066E08CE892E00C94060459
:1009F000CF93DF93CDB7DEB72B970FB6F894DEBF5A
:100A00000FBECDBF789484B5826084BD84B581600B
:100A100084BD85B5826085BD85B5816085BD8091C9
:100A20006E00816080936E00109281008091810041
:100A30008260809381008091810081608093810039
:100A4000809180008160809380008091B1008460FB
:100A50008093B1008091B00081608093B00080915C
:100A60007A00846080937A0080917A00826080931B
:100A70007A0080917A00816080937A0080917A0078
:100A8000806880937A001092C100E091F701F091A4
:100A9000F80182E08083E091F301F091F40110828B
:100AA000E091F501F091F60180E180831092FF0161
:100AB000E091FB01F091FC0186E08083E091F90177
:100AC000F091FA01808180618083E091F901F091D9
:100AD000FA01808188608083E091F901F091FA0148
:100AE000808180688083E091F901F091FA01808132
:100AF0008F7D808360E089E00E94230261E088E0CE
:100B00000E94230261E088E00E94F3011FB7F8947D
:100B10008091CF01811127C0E8EBF0E08491E4EAF5
:100B2000F0E09491E82FF0E0EE0FFF1FE057FF4F49
:100B3000A591B491EC91E92321F461E08AE00E944F
:100B4000F30161E08AE00E9423028CB580618CBDD4
:100B50008CB580648CBD61E08DE00E94230261E071
:100B60008BE00E9423028091CF018F5F8093CF01A1
:100B70001FBF04E812E0E12CF12CEAE0DE2E88E150
:100B8000888790E2998790E19A8790E89D8392E028
:100B90009E838F83F801818192810E94C60260E06A
:100BA000F80180810E94F30176E0A72EB12C8FEF2F
:100BB0000E94BF02F1E0AF1AB108C9F761E0F80185
:100BC00080810E94F30164EF71E080E090E00E9478
:100BD000840248E0BE01685F7F4FC8010E94C902DD
:100BE00040E1BE016B5F7F4FC8010E94C90285E1F1
:100BF00091E00E947203C7010E94D303F801808133
:100C00009181A281B38189839A83AB83BC8381E381
:100C100091E00E94C50387EE91E00E94F700892BC6
:100C2000D1F387EE91E00E94D500803309F056C0E1
:100C30008CE691E00E94C50360E8C8010E94300381
:100C400060EAC8010E943003F801818192810E940C
:100C5000C60260E0F80180810E94F30188E20E94F0
:100C6000BF0280E40E94BF028CE50E94BF0261E0E7
:100C7000F80180810E94F301FFEFEF1AFF0A0C5F79
:100C80001F4F83E0E816F10409F079CF6AE070E0C5
:100C900080E090E00E94840260E088E00E94F3011E
:100CA0006AE070E080E090E00E94840261E088E009
:100CB0000E94F3012FB7F8948091D0019091D10157
:100CC000A091D201B091D3012FBF8093D401909312
:100CD000D501A093D601B093D7015AC18133C9F58C
:100CE00083E791E00E94C503A12CB12C87EE91E02F
:100CF0000E94F700892BD1F387EE91E00E94D50086
:100D00008F3269F0DA9C9001DB9C300D1124805306
:100D10005901A80EB11CC5010E94D303E7CF48E4D6
:100D2000BE016B5F7F4FCE0101960E94FB029B2D9F
:100D300093708E818C7F892B8E83AF8248E0BE01B9
:100D40006B5F7F4FCE0101960E94C90287E891E058
:100D500096C0823309F058C083E791E00E94C50332
:100D600020E087EE91E02B870E94F7002B85892BEE
:100D7000C1F387EE91E00E94D5002B858F32A9F058
:100D8000220F922F990F990F290F2053280F622FAE
:100D900070E080E090E04AE02B870E94840382E1CB
:100DA00091E00E9472032B85DCCF203279F030F481
:100DB000283051F0203171F424E00DC0203441F08E
:100DC000203841F427E007C023E005C025E003C038
:100DD00026E001C020E040E5BE016B5F7F4FCE0101
:100DE00001962B870E94FB028F81887F2B85282B01
:100DF0002F8340E1BE016B5F7F4FCE0101960E94C1
:100E0000C90286E991E03BC0833309F000CF83EA51
:100E100091E00E94C50387EE91E00E94F700892BC4
:100E2000D1F387EE91E00E94D50060EDC62EC80E8A
:100E30006C2D70E080E090E04AE00E94840382E143
:100E400091E00E947203CC2019F058E0C52E01C039
:100E5000C12C40E5BE016B5F7F4FCE0101960E9421
:100E6000FB029F81977F9C299F8340E1BE016B5FBE
:100E70007F4FCE0101960E94C90289EB91E00E944A
:100E8000C503C5CEF801818192810E94C60260E04F
:100E9000F80180810E94F301C7018C579D4F4C01DE
:100EA000F40183810E94CA010197D1F380E00E947E
:100EB000BF028093E40180E00E94BF028093E501BD
:100EC00080E00E94BF028093E60180E00E94BF02A2
:100ED00061E0F80180810E94F3012091E40180919A
:100EE000E50190E0A0E0B0E0BA2FA92F982F882765
:100EF000A22B2091E601822BF50181939193A1937E
:100F0000B1935F010C5F1F4FF4E0EF0EF11C8CE01A
:100F1000E816F10409F0B6CF2FB7F8948091D0010C
:100F20009091D101A091D201B091D3012FBF009136
:100F3000D4011091D5012091D6013091D701BC0187
:100F4000CD01601B710B820B930B4AE00E9484035E
:100F50008CE20E948C00F6016191719181919191D6
:100F60006F014AE00E948403F4EECF16F1E0DF0641
:100F700079F780E20E948C0082E191E00E94720386
:100F80006CE271E080E090E00E9484020E94970190
:100F900048EDC42E41E0D42E5601E12CF12C04E89A
:100FA00012E070CFA1E21A2EAA1BBB1BFD010DC0DF
:100FB000AA1FBB1FEE1FFF1FA217B307E407F50709
:100FC00020F0A21BB30BE40BF50B661F771F881FE5
:100FD000991F1A9469F760957095809590959B017B
:100FE000AC01BD01CF010895EE0FFF1F0590F491F4
:100FF000E02D099481E090E0F8940C94FF07F894B8
:02100000FFCF20
:10100200000000002E019700C6007501F700D50010
:10101200E9000D0A002D2D2D2D2D2D2D2D2D2D2DDF
:101022002D2D2D2D2D2D414443206E756D65723A67
:1010320000302D6B6F6E74796E75756A3B20312DA1
:101042007A6D69656E2046576F72643B20322D7A45
:101052006D69656E204761696E3B20332D7A6D693B
:10106200656E20506F6C6172697479006A65737481
:101072002030002F206B6F6E637A7920777069734E
:101082007977616E69650057706973616E6F20468A
:1010920053776F72640057706973616E6F20476196
:1010A200696E00302D6269706F6C61722C20312D77
:1010B200756E69706F6C61720057706973616E6FE3
:0A10C20020506F6C617269747900B0
:00000001FF
